:100000000C9453000C947B000C947B000C947B00AC
:100010000C947B000C947B000C947B000C947B0074
:100020000C947B000C947B000C947B000C947B0064
:100030000C947B000C947B000C947B000C947B0054
:100040000C94C9020C947B000C9497020C947102DE
:100050000C947B000C947B000C947B000C947B0034
:100060000C947B000C947B0000000000250028000D
:100070002B0000000000240027002A0004040404D0
:100080000404040402020202020203030303030342
:10009000010204081020408001020408102001021F
:1000A00004081020FA0311241FBECFEFD8E0DEBFF2
:1000B000CDBF11E0A0E0B1E0E2EAF8E002C00590B7
:1000C0000D92A831B107D9F721E0A8E1B1E001C054
:1000D0001D92AE3BB207E1F710E0C3E5D0E004C0EB
:1000E0002197FE010E944904C235D107C9F70E9439
:1000F00013030C944F040C940000CF93DF9390E013
:10010000FC01E057FF4F249184589F4FFC018491DC
:100110008823C1F090E0880F991FFC01EE58FF4F33
:10012000C591D491FC01E859FF4FA591B4919FB7B7
:10013000F8948881E22FE0958E2388838C91E823C0
:10014000EC939FBFDF91CF910895AF92BF92CF9272
:10015000DF92EF92FF920F931F93CF93DF936C0187
:100160007B018B01040F151FEB015E01AE18BF0868
:10017000C017D10759F06991D601ED91FC9101901A
:10018000F081E02DC6010995892B79F7C501DF9132
:10019000CF911F910F91FF90EF90DF90CF90BF9084
:1001A000AF900895FC01538D448D252F30E0842FAE
:1001B00090E0821B930B541710F0CF96089501978F
:1001C0000895FC01918D828D981761F0A28DAE0F7C
:1001D000BF2FB11D5D968C91928D9F5F9F73928F03
:1001E00090E008958FEF9FEF0895FC01918D828D2F
:1001F000981731F0828DE80FF11D858D90E00895FC
:100200008FEF9FEF0895FC01918D228D892F90E053
:10021000805C9F4F821B91098F739927089581E21B
:1002200091E00E94030121E0892B09F420E0822F54
:10023000089580E090E0892B29F00E940F01811140
:100240000C9400000895FC01A48DA80FB92FB11DD6
:10025000A35ABF4F2C91848D90E001968F739927FC
:10026000848FA689B7892C93A089B1898C918370DA
:1002700080648C93938D848D981306C00288F389D3
:10028000E02D80818F7D80830895EF92FF920F9300
:100290001F93CF93DF93EC0181E0888F9B8D8C8D32
:1002A00098131AC0E889F989808185FF15C09FB726
:1002B000F894EE89FF896083E889F98980818370E9
:1002C000806480839FBF81E090E0DF91CF911F9198
:1002D0000F91FF90EF900895F62E0B8D10E00F5FB9
:1002E0001F4F0F731127E02E8C8D8E110CC00FB68F
:1002F00007FCFACFE889F989808185FFF5CFCE0127
:100300000E942301F1CFEB8DEC0FFD2FF11DE35A7D
:10031000FF4FF0829FB7F8940B8FEA89FB898081A9
:100320008062CFCFCF93DF93EC01888D8823B9F023
:10033000AA89BB89E889F9898C9185FD03C08081F0
:1003400086FD0DC00FB607FCF7CF8C9185FFF2CF6D
:10035000808185FFEDCFCE010E942301E9CFDF919F
:10036000CF9108958E50806480937C0080917A00B4
:10037000806480937A0080917A0086FDFCCF809122
:1003800078009091790008953FB7F89480911D010D
:1003900090911E01A0911F01B091200126B5A89B4C
:1003A00005C02F3F19F00196A11DB11D3FBFBA2F07
:1003B000A92F982F8827BC01CD01620F711D811DC7
:1003C000911D42E0660F771F881F991F4A95D1F74C
:1003D0000895FC0101900020E9F73197AF01481B17
:1003E000590BBC0181E291E00C94A5008F929F9281
:1003F000AF92BF92CF92DF92EF92FF920F931F9333
:10040000CF93DF93CDB7DEB7A1970FB6F894DEBFD9
:100410000FBECDBF6B017C01F7FE41C06DE281E2F2
:1004200091E00E9445018C0122273327A9012C1954
:100430003D094E095F0919A2CE0181967C019AE01F
:10044000892E912CA12CB12CCA01B901A5019401CE
:100450000E942704605DF70162937F012115310539
:100460004105510589F790E080E0309719F0CF0100
:100470000E94E901800F911FA1960FB6F894DEBF8C
:100480000FBECDBFDF91CF911F910F91FF90EF90E5
:10049000DF90CF90BF90AF909F908F900895AC0168
:1004A0009B0119A28E010F5D1F4F8AE0C82ED12C2F
:1004B000E12CF12CCA01B901A70196010E94270481
:1004C000605DF80162938F012115310541055105E9
:1004D00089F790E080E0309779F2CF010E94E9013E
:1004E000CBCF1F920F920FB60F9211242F933F93F1
:1004F0004F935F936F937F938F939F93AF93BF932C
:10050000EF93FF9381E291E00E942301FF91EF912D
:10051000BF91AF919F918F917F916F915F914F911B
:100520003F912F910F900FBE0F901F9018951F9223
:100530000F920FB60F9211242F938F939F93EF93E7
:10054000FF93E0913101F09132018081E091370118
:10055000F091380182FD1BC0908180913A018F5F3C
:100560008F7320913B01821741F0E0913A01F0E056
:10057000EF5DFE4F958F80933A01FF91EF919F9130
:100580008F912F910F900FBE0F901F901895808123
:10059000F4CF1F920F920FB60F9211242F933F9317
:1005A0008F939F93AF93BF938091190190911A01FC
:1005B000A0911B01B0911C013091180123E0230F81
:1005C0002D3758F50196A11DB11D20931801809378
:1005D000190190931A01A0931B01B0931C01809103
:1005E0001D0190911E01A0911F01B0912001019663
:1005F000A11DB11D80931D0190931E01A0931F01A9
:10060000B0932001BF91AF919F918F913F912F9116
:100610000F900FBE0F901F90189526E8230F02969B
:10062000A11DB11DD2CF789484B5826084BD84B5FC
:10063000816084BD85B5826085BD85B5816085BDDD
:1006400080916E00816080936E0010928100809195
:10065000810082608093810080918100816080931D
:100660008100809180008160809380008091B10042
:1006700084608093B1008091B00081608093B0006D
:1006800080917A00846080937A0080917A00826001
:1006900080937A0080917A00816080937A008091C3
:1006A0007A00806880937A001092C1008EE00E94E8
:1006B0007D008FE00E947D0080E10E947D0081E14D
:1006C0000E947D0082E10E947D00E0913101F09165
:1006D000320182E08083E0912D01F0912E011082A1
:1006E000E0912F01F09130018FEC8083109239015D
:1006F000E0913501F091360186E08083E09133018D
:10070000F0913401808180618083E0913301F09128
:100710003401808188608083E0913301F09134015D
:10072000808180688083E0913301F0913401808181
:100730008F7D8083C0E0D0E08EE00E94B2015C013A
:100740008FE00E94B2016C0180E10E94B2017C0145
:10075000B501BB0C880B990B0E94F60182E191E078
:100760000E94E901B601DD0C880B990B0E94F6018D
:1007700082E191E00E94E901B701FF0C880B990B1F
:100780000E94F60186E191E00E94E90184E191E096
:100790000E94E9010E94C4014B015C0184EFC82E54
:1007A000DD24D394E12CF12C0E94C401681979094D
:1007B0008A099B09683E734081059105A8F321E0F1
:1007C000C21AD108E108F10888EE880E83E0981E6D
:1007D000A11CB11CC114D104E104F10429F7209734
:1007E00009F4AACF0E940F01882309F4A5CF0E9423
:1007F0000000A2CFE1E2F1E01382128288EE93E0E2
:10080000A0E0B0E084839583A683B78384E091E081
:100810009183808385EC90E09587848784EC90E0D9
:100820009787868780EC90E0918B808B81EC90E0BD
:10083000938B828B82EC90E0958B848B86EC90E09E
:10084000978B868B118E128E138E148E0895A1E2D3
:100850001A2EAA1BBB1BFD010DC0AA1FBB1FEE1F3A
:10086000FF1FA217B307E407F50720F0A21BB30B85
:10087000E40BF50B661F771F881F991F1A9469F701
:1008800060957095809590959B01AC01BD01CF015D
:100890000895EE0FFF1F0590F491E02D0994F89450
:0208A000FFCF88
:1008A200000000004501A500D20092010301E10011
:0808B200F5002C000D0A000006
:00000001FF
